:020000040800F2
:1000000000000220B90200080503000805030008EB
:1000100005030008050300080503000800000000B0
:1000200000000000000000000000000005030008C0
:100030000503000800000000050300080503000890
:100040000503000805030008050300080503000870
:100050000503000805030008050300080503000860
:100060000503000805030008050300080503000850
:100070000503000805030008050300080503000840
:100080000503000805030008050300080503000830
:100090000503000805030008050300080503000820
:1000A0000503000805030008050300080503000810
:1000B0000503000805030008050300080503000800
:1000C00005030008050300080503000805030008F0
:1000D00005030008050300080503000805030008E0
:1000E00005030008050300080503000805030008D0
:1000F00005030008050300080503000805030008C0
:1001000005030008050300080503000805030008AF
:10011000050300080503000805030008050300089F
:10012000050300080503000805030008050300088F
:10013000050300080503000805030008050300087F
:10014000050300080503000805030008050300086F
:10015000050300080503000805030008050300085F
:10016000050300080503000805030008050300084F
:10017000050300080503000805030008000000004F
:08018000050300080503000857
:100188000E480F4A036B0F4943F0010382B0036323
:10019800136823F4406343F48063002013605369B9
:1001A80083F0200353610190019B8B42F7DA019B96
:1001B80001330193019B8B42F9DBF0E700380240E1
:1001C80000000240802C80003448354AD0F888303E
:1001D80043F4700382B0C0F888301368002143F0FC
:1001E8000103136091601368A0F1BC2023F08473AD
:1001F80023F48033F03813605060136823F48023AD
:100208001360D160136843F480331360019113685D
:100218009B0306D509E0019B0133019313689903F9
:1002280003D4019BB3F5A04FF5D11D4B1A68900379
:100238002ED51A6C1B491C4842F080521A640A6871
:1002480042F480420A609A689A609A6842F40042CE
:100258009A609A6842F4A0529A6058601A6842F00C
:1002680080721A601A689201FCD5104A40F2056142
:100278001160996821F003019960996841F00201C1
:10028800A2F580629960936803F00C03082BFAD1F9
:10029800024B4FF000629A6002B0704700ED00E038
:1002A800003802400070004008544007003C0240FB
:1002B8000C4885460C480D490D4A002302E0D458E5
:1002C800C4500433C4188C42F9D30A4A0A4900239B
:1002D80001E0136004328A42FBD3FFF775FFFFF792
:1002E8004FFF70470000022000000020000000209F
:1002F800080300080000002000000020FEE70000BE
:04000005080002B934
:00000001FF
